{
  "_format": "hh-sol-artifact-1",
  "contractName": "SocialDapp",
  "sourceName": "contracts/socialDapp.sol",
  "abi": [
    {
      "inputs": [
        {
          "internalType": "string",
          "name": "t",
          "type": "string"
        },
        {
          "internalType": "string",
          "name": "u",
          "type": "string"
        }
      ],
      "name": "createPost",
      "outputs": [],
      "stateMutability": "nonpayable",
      "type": "function"
    },
    {
      "inputs": [],
      "name": "id",
      "outputs": [
        {
          "internalType": "uint256",
          "name": "",
          "type": "uint256"
        }
      ],
      "stateMutability": "view",
      "type": "function"
    },
    {
      "inputs": [
        {
          "internalType": "uint256",
          "name": "",
          "type": "uint256"
        }
      ],
      "name": "posts",
      "outputs": [
        {
          "internalType": "string",
          "name": "title",
          "type": "string"
        },
        {
          "internalType": "string",
          "name": "url",
          "type": "string"
        }
      ],
      "stateMutability": "view",
      "type": "function"
    }
  ],
  "bytecode": "0x6080604052600060015534801561001557600080fd5b5061078d806100256000396000f3fe608060405234801561001057600080fd5b50600436106100415760003560e01c80630b1e7f8314610046578063392338f514610077578063af640d0f14610093575b600080fd5b610060600480360381019061005b9190610450565b6100b1565b60405161006e9291906104c5565b60405180910390f35b610091600480360381019061008c91906103d8565b6101f5565b005b61009b610290565b6040516100a891906104fc565b60405180910390f35b600081815481106100c157600080fd5b90600052602060002090600202016000915090508060000180546100e49061062b565b80601f01602080910402602001604051908101604052809291908181526020018280546101109061062b565b801561015d5780601f106101325761010080835404028352916020019161015d565b820191906000526020600020905b81548152906001019060200180831161014057829003601f168201915b5050505050908060010180546101729061062b565b80601f016020809104026020016040519081016040528092919081815260200182805461019e9061062b565b80156101eb5780601f106101c0576101008083540402835291602001916101eb565b820191906000526020600020905b8154815290600101906020018083116101ce57829003601f168201915b5050505050905082565b6101fd610296565b828160000181905250818160200181905250600081908060018154018082558091505060019003906000526020600020906002020160009091909190915060008201518160000190805190602001906102579291906102b0565b5060208201518160010190805190602001906102749291906102b0565b505050600180546102859190610589565b600181905550505050565b60015481565b604051806040016040528060608152602001606081525090565b8280546102bc9061062b565b90600052602060002090601f0160209004810192826102de5760008555610325565b82601f106102f757805160ff1916838001178555610325565b82800160010185558215610325579182015b82811115610324578251825591602001919060010190610309565b5b5090506103329190610336565b5090565b5b8082111561034f576000816000905550600101610337565b5090565b60006103666103618461053c565b610517565b90508281526020810184848401111561038257610381610720565b5b61038d8482856105e9565b509392505050565b600082601f8301126103aa576103a961071b565b5b81356103ba848260208601610353565b91505092915050565b6000813590506103d281610740565b92915050565b600080604083850312156103ef576103ee61072a565b5b600083013567ffffffffffffffff81111561040d5761040c610725565b5b61041985828601610395565b925050602083013567ffffffffffffffff81111561043a57610439610725565b5b61044685828601610395565b9150509250929050565b6000602082840312156104665761046561072a565b5b6000610474848285016103c3565b91505092915050565b60006104888261056d565b6104928185610578565b93506104a28185602086016105f8565b6104ab8161072f565b840191505092915050565b6104bf816105df565b82525050565b600060408201905081810360008301526104df818561047d565b905081810360208301526104f3818461047d565b90509392505050565b600060208201905061051160008301846104b6565b92915050565b6000610521610532565b905061052d828261065d565b919050565b6000604051905090565b600067ffffffffffffffff821115610557576105566106ec565b5b6105608261072f565b9050602081019050919050565b600081519050919050565b600082825260208201905092915050565b6000610594826105df565b915061059f836105df565b9250827fffffffffffffffffffffffffffffffffffffffffffffffffffffffffffffffff038211156105d4576105d361068e565b5b828201905092915050565b6000819050919050565b82818337600083830152505050565b60005b838110156106165780820151818401526020810190506105fb565b83811115610625576000848401525b50505050565b6000600282049050600182168061064357607f821691505b60208210811415610657576106566106bd565b5b50919050565b6106668261072f565b810181811067ffffffffffffffff82111715610685576106846106ec565b5b80604052505050565b7f4e487b7100000000000000000000000000000000000000000000000000000000600052601160045260246000fd5b7f4e487b7100000000000000000000000000000000000000000000000000000000600052602260045260246000fd5b7f4e487b7100000000000000000000000000000000000000000000000000000000600052604160045260246000fd5b600080fd5b600080fd5b600080fd5b600080fd5b6000601f19601f8301169050919050565b610749816105df565b811461075457600080fd5b5056fea26469706673582212202dd6cf8d4a1e6b6da738702a8cf8f35819b3f8685e54596c5bc01aff642f606a64736f6c63430008070033",
  "linkReferences": {},
  "deployedLinkReferences": {}
}